:020000040800F2
:10000000700700202D020008B9190008CD1800085B
:10001000B519000849040008D51B000800000000BD
:10002000000000000000000000000000C1190008EE
:100030006504000800000000BD190008C51900088B
:10004000470200084702000847020008470200086C
:10005000470200084702000847020008470200085C
:10006000470200084702000847020008470200084C
:10007000470200084702000847020008470200083C
:100080004702000847020008470200085904000818
:100090004D04000847020008470200084702000814
:1000A000470200084702000847020008470200080C
:1000B00047020008470200084702000847020008FC
:1000C00047020008470200084702000847020008EC
:1000D00047020008470200084702000847020008DC
:1000E00047020008470200084702000847020008CC
:1000F00047020008470200084702000847020008BC
:1001000047020008470200084702000847020008AB
:100110004702000847020008851A00084702000845
:10012000470200084702000847020008470200088B
:10013000470200084702000847020008470200087B
:10014000470200084702000847020008470200086B
:10015000470200084702000847020008470200085B
:10016000470200084702000847020008470200084B
:10017000470200084702000847020008000000008C
:10018000470200084702000800F002F800F03EF8BD
:100190000AA090E8000C82448344AAF10107DA45E2
:1001A00001D100F033F8AFF2090EBAE80F0013F0F6
:1001B000010F18BFFB1A43F001031847101C000081
:1001C000301C0000103A24BF78C878C1FAD8520712
:1001D00024BF30C830C144BF04680C6070470000C1
:1001E0000023002400250026103A28BF78C1FBD840
:1001F000520728BF30C148BF0B6070471FB501F0E0
:10020000D0FD00F0D5F81FBD10B510BD00F0E2F82C
:100210001146FFF7F3FF01F095FD00F000F903B47C
:10022000FFF7F2FF03BC00F007F900000948804720
:1002300009480047FEE7FEE7FEE7FEE7FEE7FEE7C8
:10024000FEE7FEE7FEE7FEE704480549054A064BE0
:1002500070470000711A0008890100087001002031
:1002600070070020700300207003002053EA020C86
:1002700000F069802DE9F04B4FF00006002B1FBF06
:10028000B3FA83F503FA05F424FA05F65E4012BFCB
:100290001643B2FA82F502FA05F4C5F120051EBF35
:1002A00022FA05FC44EA0C04203556EA044C4FEAD5
:1002B000144418BF641C4FF000084FF0000990422E
:1002C00071EB030C39D3002919BFB1FA81F701FA98
:1002D00007F6B0FA80F700FA07F6C7F120071EBF4D
:1002E00020FA07FC46EA0C062037B6FBF4FCA7EB25
:1002F0000507103F07F01F0BCBF120062CFA06F67E
:100300000CFA0BFB44BFB3460026202FA4BF5E4669
:100310004FF0000B5BEA060C08BF4FF0010B19EB26
:100320000B0948EB0608ABFB027C06FB02CC0BFB7F
:1003300003CCC01B71EB0C01C1E70B4602464146E2
:100340004846BDE8F08B13B5084318BF4FF0FF30A7
:100350000146AFF30080BDE81C4070474FF000023B
:1003600000B5134694469646203922BFA0E80C50AB
:10037000A0E80C50B1F12001BFF4F7AF090728BF86
:10038000A0E80C5048BF0CC05DF804EB890028BF02
:1003900040F8042B08BF704748BF20F8022B11F02B
:1003A000804F18BF00F8012B7047704770477047A7
:1003B00070B5064C7C44064D7D4404E0204601683F
:1003C00008448047241DAC42F8D170BD341A0000A7
:1003D000341A0000754600F02BF8AE460500694659
:1003E000534620F00700854618B020B5FFF72CFFD4
:1003F000BDE820404FF000064FF000074FF0000826
:100400004FF0000BAC46ACE8C009ACE8C009ACE862
:10041000C009ACE8C00921F007018D46704710B54E
:100420000446AFF300802046BDE81040FFF7F7BE5A
:10043000004870475000002001491820ABBEFEE77D
:100440002600020070470000FEE7000040F2B40002
:10045000C2F2000000F096B940F2B400C2F200000F
:1004600000F090B97047000072B600BFFEE70000D0
:1004700090F82020013A012A08D8006800F11402FF
:100480000020136819431160704700BF00F1240277
:1004900001204FF480211368194311607047000058
:1004A00010B590F820E0D0F800C0AEF1010EBEF11A
:1004B000010FDCF808E00FD81EF0E05F16D0CEF395
:1004C000016E012000FA0EF018608B68C3B1486815
:1004D00043EAC00316E000BF00F1240101204FF4FD
:1004E00080220B681A430A6010BD00BF00F124018E
:1004F00001204FF400120B681A430A6010BD00BFC0
:1005000008684305D1E9030403430CEB0E10C0F85F
:100510008031C0F88441097D012905D100F5C271FF
:100520000B6843F480730B605168C0F88C1112683B
:1005300000F5C071C0F88821002001220B681A4321
:100540000A6010BDB0B590F82020013A012A2FD8DA
:1005500046F20060C4F20000026842F0010202604C
:10056000026822F47C520260D1F814E0CC694A6A35
:100570000368012C43EA022202600EF01F024FF0D2
:10058000010303FA02F2C3696FEA020C23EA0203D1
:10059000C36113D02CBBC36803EA0C03C360CB68F0
:1005A0008C8844EA034300EBCE0423640B4611E03D
:1005B000416A41F4802141620120B0BDC368134308
:1005C000C3600B688C8844EA034300EBCE042364C9
:1005D00001F10C038C681B8843EA044300EBCE0452
:1005E000636443688D6943EA0204D1F810E0096A44
:1005F000002D08BF03EA0C0444604369BEF1000FFC
:1006000043EA020408BF03EA0C040129446102D151
:10061000C1691143C161016821F00101016000203D
:10062000B0BD00007047000010B590F82040013CBC
:10063000012C7BD8D0F800C0002900F08180DCF8C4
:100640001040A40700F081800CEB011CDCF8B041E5
:100650000CF5D87E14F004049460DCF8B04119BFA6
:10066000E4085460640D1460DEF800400CF5DA7E96
:1006700004F00204D460DCF8B44124075ABFDEF869
:10068000004004F00F0408241461DEF80040002943
:10069000C4F307249461DEF800404FEA1444546127
:1006A000DCF8B8211A70026802EB0112D2F8B82106
:1006B0004FEA12225A70026802EB0112D2F8B821F6
:1006C0004FEA12429A70026802EB0112D2F8B82186
:1006D0004FEA1262DA70026802EB0112D2F8BC2112
:1006E0001A71026802EB0112D2F8BC214FEA122201
:1006F0005A71026802EB0112D2F8BC214FEA124291
:100700009A71026802EB0112D2F8BC214FEA126220
:10071000DA71006814BF00F1100100F10C01002033
:1007200020220B681A430A6010BD00BF00F12401AB
:1007300001204FF480220B681A430A6010BD00BFED
:10074000DCF80C40A4077FF47FAF00F12401012006
:100750004FF400120B681A430A6010BD90F8201085
:100760000139012984BF00207047006881688268D0
:100770008068C1F38061C2F3C0621144C0F30070AD
:10078000084470472DE9F04F81B00446006846697F
:10079000D0F804908768D0F80CB0D0F810A0D0F84A
:1007A0001880F10704D1002530071DD424E000BFD4
:1007B000F90710D00121BA07816009D4780700F148
:1007C000AF80380700F1B680204600F02FFA02E033
:1007D000204600F02DFA0025F80500F18780F80387
:1007E00000F1B180300707D51BF0100004D020685D
:1007F00045F400751021C160700708D51BF0080092
:1008000005D020680821C160204600F0A9F9B00792
:1008100006D52068C068800702D0204600F0A2F903
:10082000700607D51AF0100004D0206845F48065E2
:1008300010210161B00608D51AF0080005D0206823
:1008400008210161204600F0BDF9F00606D52068B8
:100850000069800702D0204600F0B6F9B00308D541
:1008600019F0100005D0206810214160204600F0EA
:10087000ADF9F00308D519F0080005D0206808216B
:100880004160204600F0DEF9300440F19B805FEAD1
:10089000497040F1948006F4807008EA10202843E3
:1008A0005FEA8871014648BF41F00201B20558BFB6
:1008B00001465FEA48700D4648BF45F004057005E3
:1008C00058BF0D46300540F17A8018F0700000F0F6
:1008D00076801038000905286CD8DFE800F003594D
:1008E0005D61656945F0080564E000BF20684FF46C
:1008F0008071BA0581600BD4780515D438051DD4F4
:10090000204600F097F9F8037FF56CAF1BE000BFBD
:10091000204600F091F9F8037FF564AF13E000BFC3
:100920004FF4006558E700BF05F50055F8037FF563
:1009300059AF08E04FF480554EE700BF05F58045FC
:10094000F8037FF54FAF20684FF48031BA03816020
:100950000AD4780310D4380314D4204600F06EF97A
:1009600030073FF541AF47E7204600F069F930070F
:100970003FF53AAF40E700BF05F5004530073FF5CA
:1009800033AF39E705F5803530073FF52DAF33E755
:1009900045F010050EE000BF45F020050AE000BF5D
:1009A00045F0400506E000BF45F0800502E000BFCD
:1009B00045F480752068816921F0700181612068AB
:1009C0000421416055B1606A40EA05012046616238
:1009D00001B0BDE8F04FFFF725BE00BF01B0BDE894
:1009E000F08F0000B0B5C8B1044690F8200010B9EF
:1009F000204600F071F82068016841F001010160B3
:100A000000F000FA054600BF20684168C90707D119
:100A100000F0F8F9401B0B28F6D312E00120B0BD1E
:100A2000016821F00201016000F0ECF9054600BF09
:100A30002068416889070DD500F0E4F9401B0B28B8
:100A4000F6D3606A052140F400306062012084F82A
:100A50002010B0BD217E0268012922F0800208BF6B
:100A600080320260617E0268012922F0400208BFE4
:100A700040320260A17E0268012922F0200208BFF4
:100A800020320260E17E0268012922F0100218BFC4
:100A900010320260217F0268012922F0080208BF9B
:100AA00008320260617F0268012922F0040208BF57
:100AB00004320260D4E901C2D4E9033561691A4302
:100AC0002A431143ACF101021143C161002001210D
:100AD000606284F82010B0BD80B586B0016846F22F
:100AE0000040C4F20000814202D006B080BD00BFC9
:100AF000002143F630020191C4F20202136900F5AD
:100B0000D43043F000731361136903F00073019351
:100B1000019B0191136843F00803136012680223DC
:100B200002F008020192019ACDE902310921032263
:100B3000059101A90192049200F086F8132000218A
:100B4000002200F0DFF9132000F0CCF91420052179
:100B5000002200F0D7F9142000F0C4F906B080BDDF
:100B60007047000010B582B040F2B401C2F200013B
:100B7000884201D002B010BD40F24C1440F2B400E3
:100B8000C2F20004C2F200006B4600212246FFF7C9
:100B90004BFD0028EED1A0680028EBD1E0680028CA
:100BA000E8D120690828E5D12068B0F5017FE1D1BE
:100BB00040F22410C2F20000694601F045F802B08C
:100BC00010BD000070470000704700007047000033
:100BD000B0B5044690F8200001281DD1022084F809
:100BE00020002068016821F00101016000F00AF98D
:100BF000054600BF20684068C00713D000F002F926
:100C0000401B0B28F6D3606A40F400306062052078
:100C100084F820000120B0BD606A40F400206062CA
:100C20000120B0BD00206062B0BD00007047000030
:100C300070470000704700007047000070470000D8
:100C400070470000704700002DE9F04F82B000F1BE
:100C50003E4241F6004502F1FF77C4F20205082248
:100C60004FEAB726A84208BF0722072E38BF4FEA2F
:100C7000B7224FF0010A002400274FF0000800922D
:100C800008E000BF023708F10108202F04F1040436
:100C900000F0B4800E680AFA08F916EA090FF1D0DC
:100CA000D1F804A00AF0030BABF10106012E17D80E
:100CB0000322866802FA07FECA6826EA0E06BA40D0
:100CC000324382604268CAF3001522EA090205FA3B
:100CD00008F54FEA480C6FEA0E062A4342600BE023
:100CE0000322BA40D643BBF1030FBC4604D1BC4635
:100CF0004FF0030B22E000BFC2688D68324005FA56
:100D00000CF52A43BBF1020FC26017D16FF003024A
:100D100002EA5802024404F01C030F25D2F820E036
:100D200005FA03FA0D692EEA0A0E05FA03F343EAFF
:100D30000E031362D1F804A00AF0030B02680BFA49
:100D40000CF332401A431AF4403F4FF0010A02609C
:100D500098D0002243F644030192C4F202031A68B9
:100D600043F6004E42F480421A601A68C4F2010E43
:100D700002F480420192019A28F003024FF6084CD7
:100D80007244CFF6FF7C52F80C3004F00C060F25AD
:100D9000B540AB43009D05FA06F6334342F80C30EC
:100DA000DEF808204B6842EA090643F60C4CDD02E7
:100DB00058BF22EA0906CEF80860C4F2010CDCF83C
:100DC00000209D0242EA090658BF22EA0906CCF833
:100DD0000060DEF804209D0342EA090658BF22EABB
:100DE0000906CEF80460DEF80020DB0342EA0906BB
:100DF00058BF22EA0906CEF8006043E702B0BDE81A
:100E0000F08F000040F26810C2F2000000687047E6
:100E100040F2000040F26811C2F20000C2F200018C
:100E200000780A68104408607047000080B543F6F7
:100E30000040C4F20200016841F4007101600168E1
:100E400041F480610160016841F480710160032018
:100E500000F084F80F2000F005F800F027F80020DB
:100E600080BD000070B540F20006C2F2000640F2FC
:100E700008013278C2F200014FF47A730968B3FBBB
:100E8000F2F20446B1FBF2F1084600F019FB0F2C18
:100E90004FF0010508D838B94FF0FF302146002245
:100EA000002500F02FF87460284670BD82B0002045
:100EB00043F640010190C4F202014A6842F48042C4
:100EC0004A604A6802F480420192019A00900868E0
:100ED00040F080500860086800F080500090009852
:100EE00002B07047002848BF704700F01F01012280
:100EF00002FA01F14EF200124009CEF2000242F86D
:100F00002010704710B54EF60C5CCEF2000CDCF8E9
:100F10000030C3F3022E8EF00704042C28BF0424F3
:100F2000BEF103034FF0FF3E0EFA04F438BF002376
:100F3000A14399400EFA03F39A43114300F00F02C4
:100F4000043A624409010C3200F16043B0F1FF3F02
:100F5000C8BF03F56442117010BD00004EF60C517D
:100F6000CEF200010A684FF6FF031A4060F30A222E
:100F700042F0806040F0FD70086070472DE9F0415C
:100F8000002800F08B8043F60808C4F202080446EB
:100F9000D8F8F8030D4600F00700884207D288F819
:100FA000F853D8F8F80300F00700A84276D120687B
:100FB000810717D5410705D5D8F8001041F4E05155
:100FC000C8F80010010705D5D8F8001041F46041B9
:100FD000C8F80010D8F80010A26821F0F001114301
:100FE000C8F80010C0073FD1D8F8F80300F0070098
:100FF000A84207D988F8F853D8F8F80300F007009A
:10100000A8424BD12068410707D5D8F80010E26804
:1010100021F4E0511143C8F80010000708D5D8F8B2
:101020000000216920F4604040EAC100C8F80000D7
:1010300000F054F8D8F8001041F6BC52C1F3031187
:10104000C0F60002515C40F2080220FA01F140F2C1
:101050000400C2F200000068C2F200021160FFF753
:1010600001FF0020BDE8F0816068811E022907D2DF
:1010700058F8081C89015CBF0120BDE8F08111E02F
:10108000012807D158F8081C89035CBF0120BDE87E
:10109000F08107E058F8081C890703D40120BDE857
:1010A000F08100BFD8F8001021F003010843C8F810
:1010B0000000FFF7A7FE064641F28837D8F8000087
:1010C000616800F00C00B0EB810F8DD0FFF79AFE45
:1010D000801BB842F2D90320BDE8F08110B543F679
:1010E0000404C4F20204606800F00C0008280BD06D
:1010F000042819BF42F20040C0F2F40041F600306B
:10110000C0F2B70010BD00BF206821682368490203
:1011100041F60031C0F2B70100F03F02C3F388107E
:101120005CBF42F20041C0F2F401A1FB00010023C8
:10113000FFF79CF821680222C1F3014102EB410153
:10114000B0FBF1F010BD00002DE9F04182B00028A5
:101150006AD00446007843F60006C007C4F20206CF
:101160000BD0B06800F00C00042840F0A18030687B
:10117000800302D56068002856D0207880071AD5F1
:10118000B06810F00C0F09D0B06800F00C0008280F
:1011900040F0A8807068400200F1A48030688007A9
:1011A00002D5E06801283FD13068216920F0F800BD
:1011B00040EAC10030602078000739D42078400729
:1011C0004ED4A5695DB3B06800F00C00082840F06B
:1011D000BD80012D28D07068E16900F480028A4248
:1011E00022D1216A00F03F028A421DD147F6C07128
:1011F000626A0140B1EB821F16D1A26A0023CFF6CA
:10120000FF7303EBC23200F440316FF30F029142DF
:101210000AD1E16A00F07060B0EB016F04D10020E8
:1012200002B0BDE8F08100BF012002B0BDE8F0814E
:101230006069002840F20000C4F2472076D0012106
:10124000C0F8801EFFF7DEFD054600BF706F800707
:10125000B4D4FFF7D7FD401B0228F7D9DDE000BF6B
:10126000306C10F080580AD100200190306C40F0B2
:1012700080503064306C00F080500190019847F24B
:101280000007C4F200073868C00541D4386840F44C
:1012900080703860FFF7B6FD054600BF3868C005AE
:1012A00036D4FFF7AFFD401B0228F7D9B5E000BFE9
:1012B000B06800F00C00082803D1706840023FF5C8
:1012C00056AF6068B0F5803F07D0B0F5A02F40F072
:1012D0008D80306840F480203060306840F4803089
:1012E00030608DE0E068002852D00020C4F2472032
:1012F00001210160FFF786FD054600BF30688007C9
:101300003FF552AFFFF77EFD401B0228F6D984E07F
:10131000A068012805D005284ED1306F40F00400A8
:101320003067306F40F0010030674FE00021C0F8B7
:10133000801EFFF767FD0546706F80077FF53EAFA3
:10134000FFF760FD401B0228F6D966E00027C4F2D3
:10135000472700203866FFF755FD022D05460BD1C3
:10136000306880015ED5FFF74DFD401B02284FF02D
:101370000300F5D954E700BF306880017FF54FAF17
:10138000FFF740FD401B02284FF00300F4D947E768
:101390000020C4F2472000210160FFF733FD05461D
:1013A000306880077FF507AFFFF72CFD401B022850
:1013B0004FF00300F4D933E7316F002821F0010129
:1013C0003167316F21F0040131674DD0FFF71AFD0D
:1013D000054641F2883700BF306F800756D4FFF7CB
:1013E00011FD401BB842F7D917E000BF3168002853
:1013F00021F480313160316821F4802131604FD097
:10140000FFF700FD054600BF306880033FF5B5AE2D
:10141000FFF7F8FC401B6428F6D9032002B0BDE8B2
:10142000F08100BF04F11C052FCD08430021CFF649
:10143000FF7140EA821001EBC3316FF30F0140EA04
:1014400005600843706001203866FFF7DBFC044646
:10145000306880013FF5E3AEFFF7D4FC001B0228A3
:101460004FF00300F4D9DBE6FFF7CCFC054641F270
:10147000883700BF306F800708D5FFF7C3FC401BDB
:10148000B8424FF00300F5D9CAE600BFB8F1000F2B
:101490007FF497AE306C20F08050306491E600BF4E
:1014A000FFF7B0FC054600BF306880037FF565AEEE
:1014B000FFF7A8FC401B64284FF00300F4D9AFE607
:1014C000411E0020B0EB116F1CBF012070474EF28F
:1014D0001002CEF2000251604EF62351CEF200010E
:1014E000F0230B7007219060116070477047000077
:1014F0007047000010B590F83C20012A4FF002021E
:1015000051D080F83D200268D2F804E0D2F808C03B
:101510000C682EF07003234341F2FF74C4F2000400
:10152000A24253600EDC40F2FF73C4F200039A4201
:1015300016DCB2F1804F2BD040F20043C4F200031E
:1015400024E000BF40F2FF33C4F201039A4213DCEF
:1015500041F60003C4F200039A4219D0002313E0BD
:1015600040F60003C4F200039A4211D040F6004353
:10157000C4F200030AE000BF44F20003C4F2010316
:101580009A4205D040F20043C4F201039A4204D1CA
:1015900049682CF08003194391600121002280F8F2
:1015A0003D1080F83C20104610BD0000002804BF0C
:1015B0000120704710B5044690F83D0028B900207E
:1015C00084F83C00204600F01FF8022084F83D001B
:1015D0002068211D00F05CFA012084F8460084F8A0
:1015E0003E0084F83F0084F8400084F8410084F80D
:1015F000420084F8430084F8440084F8450084F8ED
:101600003D00002010BD000080B582B0006841F2AE
:101610000001C4F2000188421CBF02B080BD00205E
:10162000019043F64000C4F202000168002241F03C
:10163000100101600068062100F01000019001987F
:101640003620FFF75FFC362002B0BDE88040FFF790
:1016500049BC000090F83D1001291CBF01207047D3
:10166000022180F83D10006841F2FF72C168C4F2A7
:101670000002904241F00101C1600DDC40F2FF71B7
:10168000C4F20001884215DCB0F1804F2AD040F24C
:101690000041C4F2000123E040F2FF31C4F2010135
:1016A000884213DC41F60001C4F20001884219D0DF
:1016B000002113E040F60001C4F20001884211D07D
:1016C00040F60041C4F200010AE000BF44F200010C
:1016D000C4F20101884205D040F20041C4F2010188
:1016E000884206D1816801F00701062904BF002065
:1016F0007047016841F0010101600020704700005F
:101700007047000070B504460068C5680669B107F7
:1017100016D515F0020113D06FF00201016101210D
:1017200021778069800703D02046FFF7E9FF05E0B5
:10173000204600F08FF8204600F08EF80020207739
:10174000700719D515F0040016D020686FF0040159
:10175000016102212177806910F4407F04D0204686
:10176000FFF7CEFF06E000BF204600F073F82046EA
:1017700000F072F800202077300717D515F0080028
:1017800014D020686FF00801016104212177C0693D
:10179000800703D02046FFF7B3FF05E0204600F0A6
:1017A00059F8204600F058F800202077F00619D5A7
:1017B00015F0100016D020686FF0100101610821AB
:1017C0002177C06910F4407F04D02046FFF798FFCE
:1017D00006E000BF204600F03DF8204600F03CF84F
:1017E00000202077F00718BF15F0010002D1300665
:1017F00009D412E020686FF001010161204600F079
:101800002DF8300609D515F0800006D020686FF05D
:10181000800101612046FFF769FE700609D515F0C9
:10182000400006D020686FF040010161204600F0C2
:101830004BF8B00658BF70BD15F0200008D02168E5
:101840006FF0200220460A61BDE87040FFF750BEED
:1018500070BD0000704700007047000080B5006850
:1018600041F20001C4F20001884218BF80BD40F27D
:101870003400C2F2000090ED000A40F22410C2F2DF
:101880000000042100F0B2F940F2B400C2F20000FE
:10189000FEF764FFB0B140F22410C2F2000000F085
:1018A00045FA024640F2B40040F2380140F2B0037B
:1018B000C2F20000C2F20001C2F20003BDE88040A3
:1018C000FEF7EEBD80BD000070470000FEE700009F
:1018D00010B540F2B40046F20041C2F20000C4F27A
:1018E0000001032200234FF0012480E80E0000F1E4
:1018F0000C014FF4002C4FF4401E81E80850846125
:101900008383FFF76FF8002808BF10BDBDE81040C3
:10191000FEF7AABD83B0002043F630010290C4F266
:1019200002010A6842F001020A600A6802F001023C
:101930000292029A01900A6842F008020A600A685C
:1019400002F008020192019A0090086840F08000BD
:101950000860086800F080000090009803B07047AD
:1019600080B582B040F2DC000021C2F2000041F2FA
:10197000000240F2E73CCDE90011C4F2000253231B
:10198000C0E9021C8021C0E900238161FFF70EFE3F
:10199000002818BFFEF768FD40F2DC00C2F200002C
:1019A0006946FFF7A7FD002818BFFEF75DFD02B0EE
:1019B00080BD0000FEE70000FEE700007047000069
:1019C00070470000FFF724BAB0B592B0002443F688
:1019D0004000CDE90A44CDE908440594CDE903442B
:1019E000CDE901440094C4F202000168022541F0EF
:1019F00080510160006800F080500090009847F22C
:101A000000000094C4F20000016841F480410160CC
:101A1000006800F4804000900098012006904FF488
:101A2000803007904FF480000D9006200E90A82083
:101A3000CDE90F050420119006A80C95FFF784FB53
:101A400010B172B6FEE700BF0F20CDE901054FF4DB
:101A5000A05004904FF48050059001A805210394F4
:101A6000FFF78CFA10B172B6FEE700BF12B0B0BD3E
:101A70004EF68850CEF20000016841F4700101601A
:101A80007047000040F2DC00C2F20000FFF73ABEEF
:101A9000B0B540F6FF3E0568C4F2000E40F2004CBF
:101AA0007045C4F2010C27DCB0F1804F31D040F218
:101AB0000043C4F2000398422BD040F60003C4F266
:101AC0000003984225D041F6FF73C4F20003984208
:101AD0002ADC70453CDCB0F1804F5FD040F200431F
:101AE000C4F20003984259D040F60003C4F2000348
:101AF000984253D057E000BF40F60043C4F20003C1
:101B0000984206D0604504D00023C4F201039842F5
:101B1000D9D14B6825F0700243EA020541F6FF7304
:101B2000C4F200039842D4DD43F6FF73C4F201030C
:101B3000984221DC42F20003C4F2000398422DD007
:101B40000023C4F20103984228D0604526D02AE041
:101B500040F60043C4F2000398421FD041F6000350
:101B6000C4F20003984219D041F60043C4F20003C6
:101B7000984213D017E000BF44F20003C4F20103FF
:101B800098420BD044F60003C4F20103984205D0FA
:101B900044F20043C4F20103984204D1CB6825F417
:101BA000407243EA02050A688C684B69C46240F4DB
:101BB00080648262644504BF09690163026825F09C
:101BC000800142F004021943026001224261016077
:101BD000B0BD0000FEE7000040F224109FED020AB5
:101BE000C2F2000000F0A4B89A9999414A1FD2B2FB
:101BF000FC2A38BF7047B3EE041AB4EE410ABBEEBC
:101C0000042AF1EE10FAC8BFB0EE410AB4EE420A5F
:101C10009FED0C3AF1EE10FAB8BFB0EE420A20EE9A
:101C2000030A80EE010A6FF0010303EB410150FA51
:101C300081F0BDEEC00A10EE102A130A43778277B6
:101C4000704700BF000080460A889FED312A12BA13
:101C50004FEA124C00EE10CA4B88B8EE400A9FEDD6
:101C60002D1A20EE023A8A88DBBA23EE013A80ED83
:101C7000013A03EE103AD2BAB8EEC33A80ED023A16
:101C800003EE102AB8EEC33AB3EE044A9FED225A8F
:101C900023EE043A23EE053A80ED033A897903EE08
:101CA000101A017FB8EE433A80ED043A71B190ED1D
:101CB000063A9FED1A4A30EE433AB4EE443AF1EE5A
:101CC00010FA09DD9FED184A0FE000BF012180EDF9
:101CD000060A0177704700BF9FED114AB4EE443AFF
:101CE000F1EE10FA03DA9FED0F4A33EE043A23EED9
:101CF000022A90ED003A22EE011A81EE031A90EDCD
:101D0000052A80ED060A32EE011A80ED051A7047A9
:101D10000000B44300000039000080380000804516
:101D2000000080C500000046000000C61D3070475E
:101D300010B50446A0EC010A2121FEF70FFB204656
:101D400010BD0000FFF772F8FFF73EFEFFF7E2FD5F
:101D5000FFF7BEFDFFF704FE40F2B40040F20C01B5
:101D6000C2F20000C2F20001FEF7ECFBA8B940F29B
:101D7000B400C2F20000FEF72BFF70B940F2B400CD
:101D8000C2F200000221FEF773FB30B940F2DC0022
:101D9000C2F20000FFF75EFC10B172B6FEE700BFB2
:101DA000FEE7F1EE100A4FF6FF71C0F2C03120EAF3
:101DB000010040F04070E1EE100A704700000000A2
:101DC000000000000102030406070809F01D0008D6
:101DD0000000002050000000C4010008401E000860
:101DE0005000002020070000E0010008EDFDFFFF8B
:101DF00001000000100000000024F40000000000BA
:101E000000000000000000000000000000000000D2
:101E100000000000000000000100000001000000C0
:101E20000E000000CDCC4C3E00020000000000007F
:101E3000000000000000000008000000000000009A
:040000050800018965
:00000001FF
